{
  "contractName": "CoinFlip",
  "abi": [
    {
      "anonymous": false,
      "inputs": [
        {
          "indexed": true,
          "internalType": "address",
          "name": "player",
          "type": "address"
        },
        {
          "indexed": false,
          "internalType": "bool",
          "name": "success",
          "type": "bool"
        },
        {
          "indexed": false,
          "internalType": "uint256",
          "name": "amount",
          "type": "uint256"
        }
      ],
      "name": "Flipped",
      "type": "event"
    },
    {
      "constant": true,
      "inputs": [],
      "name": "betFunds",
      "outputs": [
        {
          "internalType": "uint256",
          "name": "",
          "type": "uint256"
        }
      ],
      "payable": false,
      "stateMutability": "view",
      "type": "function"
    },
    {
      "constant": true,
      "inputs": [
        {
          "internalType": "address",
          "name": "",
          "type": "address"
        }
      ],
      "name": "inProgress",
      "outputs": [
        {
          "internalType": "bool",
          "name": "",
          "type": "bool"
        }
      ],
      "payable": false,
      "stateMutability": "view",
      "type": "function"
    },
    {
      "constant": true,
      "inputs": [
        {
          "internalType": "address",
          "name": "",
          "type": "address"
        }
      ],
      "name": "playerBet",
      "outputs": [
        {
          "internalType": "uint256",
          "name": "",
          "type": "uint256"
        }
      ],
      "payable": false,
      "stateMutability": "view",
      "type": "function"
    },
    {
      "constant": true,
      "inputs": [
        {
          "internalType": "address",
          "name": "",
          "type": "address"
        }
      ],
      "name": "playerId",
      "outputs": [
        {
          "internalType": "bytes32",
          "name": "",
          "type": "bytes32"
        }
      ],
      "payable": false,
      "stateMutability": "view",
      "type": "function"
    },
    {
      "constant": true,
      "inputs": [
        {
          "internalType": "bytes32",
          "name": "",
          "type": "bytes32"
        }
      ],
      "name": "querySender",
      "outputs": [
        {
          "internalType": "address payable",
          "name": "",
          "type": "address"
        }
      ],
      "payable": false,
      "stateMutability": "view",
      "type": "function"
    },
    {
      "constant": true,
      "inputs": [
        {
          "internalType": "address",
          "name": "",
          "type": "address"
        }
      ],
      "name": "randomResult",
      "outputs": [
        {
          "internalType": "bool",
          "name": "",
          "type": "bool"
        }
      ],
      "payable": false,
      "stateMutability": "view",
      "type": "function"
    },
    {
      "constant": false,
      "inputs": [],
      "name": "setBet",
      "outputs": [],
      "payable": true,
      "stateMutability": "payable",
      "type": "function"
    },
    {
      "constant": false,
      "inputs": [],
      "name": "update",
      "outputs": [],
      "payable": true,
      "stateMutability": "payable",
      "type": "function"
    },
    {
      "constant": true,
      "inputs": [],
      "name": "checkStatus",
      "outputs": [
        {
          "internalType": "bool",
          "name": "status",
          "type": "bool"
        }
      ],
      "payable": false,
      "stateMutability": "view",
      "type": "function"
    },
    {
      "constant": false,
      "inputs": [
        {
          "internalType": "bytes32",
          "name": "_myid",
          "type": "bytes32"
        },
        {
          "internalType": "string",
          "name": "_result",
          "type": "string"
        }
      ],
      "name": "__callback",
      "outputs": [],
      "payable": false,
      "stateMutability": "nonpayable",
      "type": "function"
    },
    {
      "constant": false,
      "inputs": [
        {
          "internalType": "bytes32",
          "name": "_queryId",
          "type": "bytes32"
        },
        {
          "internalType": "string",
          "name": "_result",
          "type": "string"
        },
        {
          "internalType": "bytes",
          "name": "_proof",
          "type": "bytes"
        }
      ],
      "name": "__callback",
      "outputs": [],
      "payable": false,
      "stateMutability": "nonpayable",
      "type": "function"
    },
    {
      "constant": false,
      "inputs": [],
      "name": "fundPool",
      "outputs": [],
      "payable": true,
      "stateMutability": "payable",
      "type": "function"
    }
  ],
  "bytecode": "0x608060405234801561001057600080fd5b50612e24806100206000396000f3fe6080604052600436106100a75760003560e01c806367ca1b141161006457806367ca1b141461040b57806370f37d2714610486578063a2e6204514610490578063b84aa0651461049a578063c79bf37e146104a4578063ffcb09de1461050d576100a7565b80631e20ddab146100ac57806327dc297e146100d757806338bbfa50146101a95780633b7104f2146103125780633cbd6429146103415780634251ea3c146103a6575b600080fd5b3480156100b857600080fd5b506100c1610576565b6040518082815260200191505060405180910390f35b3480156100e357600080fd5b506101a7600480360360408110156100fa57600080fd5b81019080803590602001909291908035906020019064010000000081111561012157600080fd5b82018360208201111561013357600080fd5b8035906020019184600183028401116401000000008311171561015557600080fd5b91908080601f016020809104026020016040519081016040528093929190818152602001838380828437600081840152601f19601f82011690508083019250505050505050919291929050505061057c565b005b3480156101b557600080fd5b50610310600480360360608110156101cc57600080fd5b8101908080359060200190929190803590602001906401000000008111156101f357600080fd5b82018360208201111561020557600080fd5b8035906020019184600183028401116401000000008311171561022757600080fd5b91908080601f016020809104026020016040519081016040528093929190818152602001838380828437600081840152601f19601f8201169050808301925050505050505091929192908035906020019064010000000081111561028a57600080fd5b82018360208201111561029c57600080fd5b803590602001918460018302840111640100000000831117156102be57600080fd5b91908080601f016020809104026020016040519081016040528093929190818152602001838380828437600081840152601f19601f8201169050808301925050505050505091929192905050506105bf565b005b34801561031e57600080fd5b50610327610729565b604051808215151515815260200191505060405180910390f35b34801561034d57600080fd5b506103906004803603602081101561036457600080fd5b81019080803573ffffffffffffffffffffffffffffffffffffffff16906020019092919050505061077d565b6040518082815260200191505060405180910390f35b3480156103b257600080fd5b506103f5600480360360208110156103c957600080fd5b81019080803573ffffffffffffffffffffffffffffffffffffffff169060200190929190505050610795565b6040518082815260200191505060405180910390f35b34801561041757600080fd5b506104446004803603602081101561042e57600080fd5b81019080803590602001909291905050506107ad565b604051808273ffffffffffffffffffffffffffffffffffffffff1673ffffffffffffffffffffffffffffffffffffffff16815260200191505060405180910390f35b61048e6107e0565b005b610498610869565b005b6104a26109f7565b005b3480156104b057600080fd5b506104f3600480360360208110156104c757600080fd5b81019080803573ffffffffffffffffffffffffffffffffffffffff169060200190929190505050610abd565b604051808215151515815260200191505060405180910390f35b34801561051957600080fd5b5061055c6004803603602081101561053057600080fd5b81019080803573ffffffffffffffffffffffffffffffffffffffff169060200190929190505050610add565b604051808215151515815260200191505060405180910390f35b60055481565b6105bb828260006040519080825280601f01601f1916602001820160405280156105b55781602001600182028038833980820191505090505b506105bf565b5050565b6105c7610afd565b73ffffffffffffffffffffffffffffffffffffffff163373ffffffffffffffffffffffffffffffffffffffff16146105fe57600080fd5b60006002836040516020018082805190602001908083835b602083106106395780518252602082019150602081019050602083039250610616565b6001836020036101000a0380198251168184511680821785525050505050509050019150506040516020818303038152906040528051906020012060001c8161067e57fe5b069050600060018214905060006007600087815260200190815260200160002060009054906101000a900473ffffffffffffffffffffffffffffffffffffffff16905081600a60008373ffffffffffffffffffffffffffffffffffffffff1673ffffffffffffffffffffffffffffffffffffffff16815260200190815260200160002060006101000a81548160ff02191690831515021790555061072181610e1a565b505050505050565b6000600960003373ffffffffffffffffffffffffffffffffffffffff1673ffffffffffffffffffffffffffffffffffffffff16815260200190815260200160002060009054906101000a900460ff16905090565b60086020528060005260406000206000915090505481565b60066020528060005260406000206000915090505481565b60076020528060005260406000206000915054906101000a900473ffffffffffffffffffffffffffffffffffffffff1681565b6000341415610857576040517f08c379a00000000000000000000000000000000000000000000000000000000081526004018080602001828103825260118152602001807f43616e6e6f742073656e64207a65726f2e00000000000000000000000000000081525060200191505060405180910390fd5b34600560008282540192505081905550565b6706f05b59d3b200003410156108e7576040517f08c379a000000000000000000000000000000000000000000000000000000000815260040180806020018281038252600f8152602001807f4e6f7420656e6f756768206761732e000000000000000000000000000000000081525060200191505060405180910390fd5b6000809050600062030d409050600061090283600184611171565b905080600860003373ffffffffffffffffffffffffffffffffffffffff1673ffffffffffffffffffffffffffffffffffffffff16815260200190815260200160002081905550336007600083815260200190815260200160002060006101000a81548173ffffffffffffffffffffffffffffffffffffffff021916908373ffffffffffffffffffffffffffffffffffffffff1602179055506001600960003373ffffffffffffffffffffffffffffffffffffffff1673ffffffffffffffffffffffffffffffffffffffff16815260200190815260200160002060006101000a81548160ff021916908315150217905550505050565b6000341415610a6e576040517f08c379a00000000000000000000000000000000000000000000000000000000081526004018080602001828103825260108152602001807f43616e6e6f7420626574207a65726f2e0000000000000000000000000000000081525060200191505060405180910390fd5b34600660003373ffffffffffffffffffffffffffffffffffffffff1673ffffffffffffffffffffffffffffffffffffffff16815260200190815260200160002060008282540192505081905550565b60096020528060005260406000206000915054906101000a900460ff1681565b600a6020528060005260406000206000915054906101000a900460ff1681565b60008073ffffffffffffffffffffffffffffffffffffffff16600160009054906101000a900473ffffffffffffffffffffffffffffffffffffffff1673ffffffffffffffffffffffffffffffffffffffff161480610b8557506000610b83600160009054906101000a900473ffffffffffffffffffffffffffffffffffffffff1661170c565b145b15610b9657610b946000611717565b505b600160009054906101000a900473ffffffffffffffffffffffffffffffffffffffff1673ffffffffffffffffffffffffffffffffffffffff166338cc48316040518163ffffffff1660e01b8152600401602060405180830381600087803b158015610c0057600080fd5b505af1158015610c14573d6000803e3d6000fd5b505050506040513d6020811015610c2a57600080fd5b810190808051906020019092919050505073ffffffffffffffffffffffffffffffffffffffff166000809054906101000a900473ffffffffffffffffffffffffffffffffffffffff1673ffffffffffffffffffffffffffffffffffffffff1614610d7357600160009054906101000a900473ffffffffffffffffffffffffffffffffffffffff1673ffffffffffffffffffffffffffffffffffffffff166338cc48316040518163ffffffff1660e01b8152600401602060405180830381600087803b158015610cf857600080fd5b505af1158015610d0c573d6000803e3d6000fd5b505050506040513d6020811015610d2257600080fd5b81019080805190602001909291905050506000806101000a81548173ffffffffffffffffffffffffffffffffffffffff021916908373ffffffffffffffffffffffffffffffffffffffff1602179055505b6000809054906101000a900473ffffffffffffffffffffffffffffffffffffffff1673ffffffffffffffffffffffffffffffffffffffff1663c281d19e6040518163ffffffff1660e01b815260040160206040518083038186803b158015610dda57600080fd5b505afa158015610dee573d6000803e3d6000fd5b505050506040513d6020811015610e0457600080fd5b8101908080519060200190929190505050905090565b6000600660008373ffffffffffffffffffffffffffffffffffffffff1673ffffffffffffffffffffffffffffffffffffffff168152602001908152602001600020541415610ed0576040517f08c379a000000000000000000000000000000000000000000000000000000000815260040180806020018281038252600e8152602001807f4e6f2062657420706c616365642e00000000000000000000000000000000000081525060200191505060405180910390fd5b60006002600660008473ffffffffffffffffffffffffffffffffffffffff1673ffffffffffffffffffffffffffffffffffffffff168152602001908152602001600020540260055411610f2557600554610f69565b6002600660008473ffffffffffffffffffffffffffffffffffffffff1673ffffffffffffffffffffffffffffffffffffffff16815260200190815260200160002054025b9050600a60008373ffffffffffffffffffffffffffffffffffffffff1673ffffffffffffffffffffffffffffffffffffffff16815260200190815260200160002060009054906101000a900460ff1615611074578173ffffffffffffffffffffffffffffffffffffffff166108fc829081150290604051600060405180830381858888f19350505050158015611003573d6000803e3d6000fd5b50806005600082825403925050819055508173ffffffffffffffffffffffffffffffffffffffff167ff0783f7a0e8f961f377527c37370b36fb1f21999457b31fa003511f7b3cdd53560018360405180831515151581526020018281526020019250505060405180910390a26110d0565b8173ffffffffffffffffffffffffffffffffffffffff167ff0783f7a0e8f961f377527c37370b36fb1f21999457b31fa003511f7b3cdd53560008060405180831515151581526020018281526020019250505060405180910390a25b6000600960008473ffffffffffffffffffffffffffffffffffffffff1673ffffffffffffffffffffffffffffffffffffffff16815260200190815260200160002060006101000a81548160ff0219169083151502179055506000600660008473ffffffffffffffffffffffffffffffffffffffff1673ffffffffffffffffffffffffffffffffffffffff168152602001908152602001600020819055505050565b60008083118015611183575060208311155b61118c57600080fd5b600a84029350606060016040519080825280601f01601f1916602001820160405280156111c85781602001600182028038833980820191505090505b5090508360f81b816000815181106111dc57fe5b60200101907effffffffffffffffffffffffffffffffffffffffffffffffffffffffffffff1916908160001a905350606060206040519080825280601f01601f1916602001820160405280156112415781602001600182028038833980820191505090505b509050606060206040519080825280601f01601f19166020018201604052801561127a5781602001600182028038833980820191505090505b5090506000611287611728565b905060208352424118600143034018602084015260208252806020830152606060206040519080825280601f01601f1916602001820160405280156112db5781602001600182028038833980820191505090505b509050886020820152606060086040519080825280601f01601f19166020018201604052801561131a5781602001600182028038833980820191505090505b50905061132d8260186008846000611a45565b50611336612d09565b6040518060800160405280878152602001888152602001868152602001848152509050600061139b6040518060400160405280600681526020017f72616e646f6d0000000000000000000000000000000000000000000000000000815250838c611aa4565b9050606060086040519080825280601f01601f1916602001820160405280156113d35781602001600182028038833980820191505090505b50905060208401517f0100000000000000000000000000000000000000000000000000000000000000810460278301537e01000000000000000000000000000000000000000000000000000000000000810460268301537d010000000000000000000000000000000000000000000000000000000000810460258301537c0100000000000000000000000000000000000000000000000000000000810460248301537b01000000000000000000000000000000000000000000000000000000810460238301537a0100000000000000000000000000000000000000000000000000008104602283015379010000000000000000000000000000000000000000000000000081046021830153780100000000000000000000000000000000000000000000000081046020830153506116f982828560016004811061151257fe5b602002015160028760006004811061152657fe5b60200201516040518082805190602001908083835b6020831061155e578051825260208201915060208101905060208303925061153b565b6001836020036101000a038019825116818451168082178552505050505050905001915050602060405180830381855afa1580156115a0573d6000803e3d6000fd5b5050506040513d60208110156115b557600080fd5b8101908080519060200190929190505050876002600481106115d357fe5b60200201516040516020018085805190602001908083835b6020831061160e57805182526020820191506020810190506020830392506115eb565b6001836020036101000a03801982511681845116808217855250505050505090500184805190602001908083835b6020831061165f578051825260208201915060208101905060208303925061163c565b6001836020036101000a03801982511681845116808217855250505050505090500183815260200182805190602001908083835b602083106116b65780518252602082019150602081019050602083039250611693565b6001836020036101000a03801982511681845116808217855250505050505090500194505050505060405160208183030381529060405280519060200120611e11565b8199505050505050505050509392505050565b6000813b9050919050565b6000611721611e2d565b9050919050565b60008073ffffffffffffffffffffffffffffffffffffffff16600160009054906101000a900473ffffffffffffffffffffffffffffffffffffffff1673ffffffffffffffffffffffffffffffffffffffff1614806117b0575060006117ae600160009054906101000a900473ffffffffffffffffffffffffffffffffffffffff1661170c565b145b156117c1576117bf6000611717565b505b600160009054906101000a900473ffffffffffffffffffffffffffffffffffffffff1673ffffffffffffffffffffffffffffffffffffffff166338cc48316040518163ffffffff1660e01b8152600401602060405180830381600087803b15801561182b57600080fd5b505af115801561183f573d6000803e3d6000fd5b505050506040513d602081101561185557600080fd5b810190808051906020019092919050505073ffffffffffffffffffffffffffffffffffffffff166000809054906101000a900473ffffffffffffffffffffffffffffffffffffffff1673ffffffffffffffffffffffffffffffffffffffff161461199e57600160009054906101000a900473ffffffffffffffffffffffffffffffffffffffff1673ffffffffffffffffffffffffffffffffffffffff166338cc48316040518163ffffffff1660e01b8152600401602060405180830381600087803b15801561192357600080fd5b505af1158015611937573d6000803e3d6000fd5b505050506040513d602081101561194d57600080fd5b81019080805190602001909291905050506000806101000a81548173ffffffffffffffffffffffffffffffffffffffff021916908373ffffffffffffffffffffffffffffffffffffffff1602179055505b6000809054906101000a900473ffffffffffffffffffffffffffffffffffffffff1673ffffffffffffffffffffffffffffffffffffffff1663abaa5f3e6040518163ffffffff1660e01b815260040160206040518083038186803b158015611a0557600080fd5b505afa158015611a19573d6000803e3d6000fd5b505050506040513d6020811015611a2f57600080fd5b8101908080519060200190929190505050905090565b6060600082850190508084511015611a5c57600080fd5b600086602001905060008460200190505b868860200101821015611a955781890151808288015250602082019150602081019050611a6d565b85935050505095945050505050565b60008073ffffffffffffffffffffffffffffffffffffffff16600160009054906101000a900473ffffffffffffffffffffffffffffffffffffffff1673ffffffffffffffffffffffffffffffffffffffff161480611b2c57506000611b2a600160009054906101000a900473ffffffffffffffffffffffffffffffffffffffff1661170c565b145b15611b3d57611b3b6000611717565b505b600160009054906101000a900473ffffffffffffffffffffffffffffffffffffffff1673ffffffffffffffffffffffffffffffffffffffff166338cc48316040518163ffffffff1660e01b8152600401602060405180830381600087803b158015611ba757600080fd5b505af1158015611bbb573d6000803e3d6000fd5b505050506040513d6020811015611bd157600080fd5b810190808051906020019092919050505073ffffffffffffffffffffffffffffffffffffffff166000809054906101000a900473ffffffffffffffffffffffffffffffffffffffff1673ffffffffffffffffffffffffffffffffffffffff1614611d1a57600160009054906101000a900473ffffffffffffffffffffffffffffffffffffffff1673ffffffffffffffffffffffffffffffffffffffff166338cc48316040518163ffffffff1660e01b8152600401602060405180830381600087803b158015611c9f57600080fd5b505af1158015611cb3573d6000803e3d6000fd5b505050506040513d6020811015611cc957600080fd5b81019080805190602001909291905050506000806101000a81548173ffffffffffffffffffffffffffffffffffffffff021916908373ffffffffffffffffffffffffffffffffffffffff1602179055505b60606004604051908082528060200260200182016040528015611d5157816020015b6060815260200190600190039081611d3c5790505b50905083600060048110611d6157fe5b602002015181600081518110611d7357fe5b602002602001018190525083600160048110611d8b57fe5b602002015181600181518110611d9d57fe5b602002602001018190525083600260048110611db557fe5b602002015181600281518110611dc757fe5b602002602001018190525083600360048110611ddf57fe5b602002015181600381518110611df157fe5b6020026020010181905250611e07858285612384565b9150509392505050565b8060036000848152602001908152602001600020819055505050565b600080611e4d731d3b2638a7cc9f2cb3d298a3da7a90b67e5506ed61170c565b1115611eef57731d3b2638a7cc9f2cb3d298a3da7a90b67e5506ed600160006101000a81548173ffffffffffffffffffffffffffffffffffffffff021916908373ffffffffffffffffffffffffffffffffffffffff160217905550611ee66040518060400160405280600b81526020017f6574685f6d61696e6e65740000000000000000000000000000000000000000008152506128e6565b60019050612381565b6000611f0e73c03a2615d5efaf5f49f60b7bb6583eaec212fdf161170c565b1115611fb05773c03a2615d5efaf5f49f60b7bb6583eaec212fdf1600160006101000a81548173ffffffffffffffffffffffffffffffffffffffff021916908373ffffffffffffffffffffffffffffffffffffffff160217905550611fa76040518060400160405280600c81526020017f6574685f726f707374656e3300000000000000000000000000000000000000008152506128e6565b60019050612381565b6000611fcf73b7a07bcf2ba2f2703b24c0691b5278999c59ac7e61170c565b11156120715773b7a07bcf2ba2f2703b24c0691b5278999c59ac7e600160006101000a81548173ffffffffffffffffffffffffffffffffffffffff021916908373ffffffffffffffffffffffffffffffffffffffff1602179055506120686040518060400160405280600981526020017f6574685f6b6f76616e00000000000000000000000000000000000000000000008152506128e6565b60019050612381565b600061209073146500cfd35b22e4a392fe0adc06de1a1368ed4861170c565b11156121325773146500cfd35b22e4a392fe0adc06de1a1368ed48600160006101000a81548173ffffffffffffffffffffffffffffffffffffffff021916908373ffffffffffffffffffffffffffffffffffffffff1602179055506121296040518060400160405280600b81526020017f6574685f72696e6b6562790000000000000000000000000000000000000000008152506128e6565b60019050612381565b600061215173a2998efd205fb9d4b4963afb70778d6354ad3a4161170c565b11156121f35773a2998efd205fb9d4b4963afb70778d6354ad3a41600160006101000a81548173ffffffffffffffffffffffffffffffffffffffff021916908373ffffffffffffffffffffffffffffffffffffffff1602179055506121ea6040518060400160405280600a81526020017f6574685f676f65726c69000000000000000000000000000000000000000000008152506128e6565b60019050612381565b6000612212736f485c8bf6fc43ea212e93bbf8ce046c7f1cb47561170c565b111561227657736f485c8bf6fc43ea212e93bbf8ce046c7f1cb475600160006101000a81548173ffffffffffffffffffffffffffffffffffffffff021916908373ffffffffffffffffffffffffffffffffffffffff16021790555060019050612381565b60006122957320e12a1f859b3feae5fb2a0a32c18f5a65555bbf61170c565b11156122f9577320e12a1f859b3feae5fb2a0a32c18f5a65555bbf600160006101000a81548173ffffffffffffffffffffffffffffffffffffffff021916908373ffffffffffffffffffffffffffffffffffffffff16021790555060019050612381565b60006123187351efaf4c8b3c9afbd5ab9f4bbc82784ab6ef8faa61170c565b111561237c577351efaf4c8b3c9afbd5ab9f4bbc82784ab6ef8faa600160006101000a81548173ffffffffffffffffffffffffffffffffffffffff021916908373ffffffffffffffffffffffffffffffffffffffff16021790555060019050612381565b600090505b90565b60008073ffffffffffffffffffffffffffffffffffffffff16600160009054906101000a900473ffffffffffffffffffffffffffffffffffffffff1673ffffffffffffffffffffffffffffffffffffffff16148061240c5750600061240a600160009054906101000a900473ffffffffffffffffffffffffffffffffffffffff1661170c565b145b1561241d5761241b6000611717565b505b600160009054906101000a900473ffffffffffffffffffffffffffffffffffffffff1673ffffffffffffffffffffffffffffffffffffffff166338cc48316040518163ffffffff1660e01b8152600401602060405180830381600087803b15801561248757600080fd5b505af115801561249b573d6000803e3d6000fd5b505050506040513d60208110156124b157600080fd5b810190808051906020019092919050505073ffffffffffffffffffffffffffffffffffffffff166000809054906101000a900473ffffffffffffffffffffffffffffffffffffffff1673ffffffffffffffffffffffffffffffffffffffff16146125fa57600160009054906101000a900473ffffffffffffffffffffffffffffffffffffffff1673ffffffffffffffffffffffffffffffffffffffff166338cc48316040518163ffffffff1660e01b8152600401602060405180830381600087803b15801561257f57600080fd5b505af1158015612593573d6000803e3d6000fd5b505050506040513d60208110156125a957600080fd5b81019080805190602001909291905050506000806101000a81548173ffffffffffffffffffffffffffffffffffffffff021916908373ffffffffffffffffffffffffffffffffffffffff1602179055505b60008060009054906101000a900473ffffffffffffffffffffffffffffffffffffffff1673ffffffffffffffffffffffffffffffffffffffff16632ef3accc86856040518363ffffffff1660e01b81526004018080602001838152602001828103825284818151815260200191508051906020019080838360005b83811015612690578082015181840152602081019050612675565b50505050905090810190601f1680156126bd5780820380516001836020036101000a031916815260200191505b509350505050602060405180830381600087803b1580156126dd57600080fd5b505af11580156126f1573d6000803e3d6000fd5b505050506040513d602081101561270757600080fd5b81019080805190602001909291905050509050823a02670de0b6b3a76400000181111561273a576000801b9150506128df565b606061274585612900565b90506000809054906101000a900473ffffffffffffffffffffffffffffffffffffffff1673ffffffffffffffffffffffffffffffffffffffff1663c55c1cb68360008985896040518663ffffffff1660e01b8152600401808581526020018060200180602001848152602001838103835286818151815260200191508051906020019080838360005b838110156127e95780820151818401526020810190506127ce565b50505050905090810190601f1680156128165780820380516001836020036101000a031916815260200191505b50838103825285818151815260200191508051906020019080838360005b8381101561284f578082015181840152602081019050612834565b50505050905090810190601f16801561287c5780820380516001836020036101000a031916815260200191505b5096505050505050506020604051808303818588803b15801561289e57600080fd5b505af11580156128b2573d6000803e3d6000fd5b50505050506040513d60208110156128c957600080fd5b8101908080519060200190929190505050925050505b9392505050565b80600290805190602001906128fc929190612d30565b5050565b606061290a612980565b612912612db0565b61291e8161040061298c565b612927816129d6565b60008090505b83518110156129695761295c84828151811061294557fe5b6020026020010151836129e490919063ffffffff16565b808060010191505061292d565b5061297381612a09565b8060000151915050919050565b60405180590338823950565b600081905060006020828161299d57fe5b06146129b657602081816129ad57fe5b06602003810190505b808360200181815250506040518084526000815281810160405250505050565b6129e1816004612a17565b50565b6129f18260028351612a38565b612a048183612b7890919063ffffffff16565b505050565b612a14816007612a17565b50565b612a34601f60058360ff16901b1783612c2390919063ffffffff16565b5050565b60178111612a6457612a5f8160058460ff16901b60ff161784612c2390919063ffffffff16565b612b73565b60ff8111612aa557612a89601860058460ff16901b1784612c2390919063ffffffff16565b612a9f81600185612c639092919063ffffffff16565b50612b72565b61ffff8111612ae757612acb601960058460ff16901b1784612c2390919063ffffffff16565b612ae181600285612c639092919063ffffffff16565b50612b71565b63ffffffff8111612b2b57612b0f601a60058460ff16901b1784612c2390919063ffffffff16565b612b2581600485612c639092919063ffffffff16565b50612b70565b67ffffffffffffffff8111612b6f57612b57601b60058460ff16901b1784612c2390919063ffffffff16565b612b6d81600885612c639092919063ffffffff16565b505b5b5b5b5b505050565b612b80612db0565b82602001518360000151518351011115612bb057612baf836002612ba986602001518651612cca565b02612ce6565b5b60008060008451905085518051602081830101945086518101825260208701935050505b60208110612bf75781518352602083019250602082019150602081039050612bd4565b60006001826020036101000a039050801983511681855116818117865250508694505050505092915050565b81602001516001836000015151011115612c4957612c48826002846020015102612ce6565b5b815180516020818301018381536001820183525050505050565b612c6b612db0565b836020015184600001515183011115612c9957612c98846002612c92876020015186612cca565b02612ce6565b5b60006001836101000a0390508451805184818301018684198251161781528582018352505050849150509392505050565b600081831115612cdc57829050612ce0565b8190505b92915050565b606082600001519050612cf9838361298c565b612d038382612b78565b50505050565b60405180608001604052806004905b6060815260200190600190039081612d185790505090565b828054600181600116156101000203166002900490600052602060002090601f016020900481019282601f10612d7157805160ff1916838001178555612d9f565b82800160010185558215612d9f579182015b82811115612d9e578251825591602001919060010190612d83565b5b509050612dac9190612dca565b5090565b604051806040016040528060608152602001600081525090565b612dec91905b80821115612de8576000816000905550600101612dd0565b5090565b9056fea265627a7a723158204f6b8ac13887d67101f540f99d615f657b9bb82fdb20060a0532088fc03ee13b64736f6c634300050c0032",
  "source": "pragma solidity >= 0.5.0 < 0.6.0;\n\nimport \"./usingProvable.sol\";\n\n\ncontract CoinFlip is usingProvable {\n    \n    event Flipped(address indexed player, bool success, uint256 amount);\n\n    uint256 constant NUM_RANDOM_BYTES_REQUESTED = 1;\n    uint256 public betFunds;\n    \n    // Current bet from the player\n    mapping(address => uint256) public playerBet;\n    \n    // The sender of the query.\n    mapping(bytes32 => address payable) public querySender;\n    \n    // The last request from the player.\n    mapping(address => bytes32) public playerId;\n    \n    // Set to true when the query is made, set to false when result is returned.\n    mapping(address => bool) public inProgress;\n    \n    // Random true or false.\n    mapping(address => bool) public randomResult;\n\n\n    function setBet() public payable {\n        require(msg.value != 0, \"Cannot bet zero.\");\n        playerBet[msg.sender] += msg.value;\n    }\n\n\n    // Player \"flips the coin\" and makes a random number query.\n    function update() payable public {\n        require(msg.value >= 0.5 ether, \"Not enough gas.\");\n        uint256 QUERY_EXECUTION_DELAY = 0;\n        uint256 GAS_FOR_CALLBACK = 200000;\n        bytes32 queryId = provable_newRandomDSQuery(\n            QUERY_EXECUTION_DELAY,\n            NUM_RANDOM_BYTES_REQUESTED,\n            GAS_FOR_CALLBACK\n        );\n        playerId[msg.sender] = queryId;\n        querySender[queryId] = msg.sender;\n        inProgress[msg.sender] = true;\n    }\n\n    \n    // Called by the frontend until it returns false when the query is resolved.\n    function checkStatus() public view returns(bool status) {\n        return inProgress[msg.sender];\n    }\n    \n    \n    // Random number gets set, calls sendWin.\n    function __callback(bytes32 _queryId, string memory _result, bytes memory _proof) public {\n        require(msg.sender == provable_cbAddress());\n\n        uint256 randomNumber = uint256(keccak256(abi.encodePacked(_result))) % 2;\n        bool result = randomNumber == 1;\n        \n        address payable player = querySender[_queryId];\n        randomResult[player] = result;\n        _sendWin(player);\n    }\n    \n    \n    // Check the random boolean and either sends the prize, or doesn't.\n    function _sendWin(address payable player) private {\n        require(playerBet[player] != 0, \"No bet placed.\");\n        uint256 maxWin = betFunds > playerBet[player] * 2 ? playerBet[player] * 2 : betFunds;\n\n        if(randomResult[player]) {\n            player.transfer(maxWin);\n            betFunds -= maxWin;\n            emit Flipped(player, true, maxWin);\n        }\n        else {\n            emit Flipped(player, false, 0);\n        }\n\n        inProgress[player] = false;\n        playerBet[player] = 0;\n    }\n    \n    \n    // Deployer can send funds that can be won.\n    function fundPool() public payable {\n        require(msg.value != 0, \"Cannot send zero.\");\n        betFunds += msg.value;\n    }\n}",
  "sourcePath": "/home/paddy/Code/academy/coin-flip/core/contracts/CoinFlip.sol",
  "compiler": {
    "name": "solc",
    "version": "0.5.12+commit.7709ece9.Emscripten.clang"
  },
  "schemaVersion": "3.3.4",
  "updatedAt": "2021-05-13T10:22:11.670Z",
  "networkType": "ethereum",
  "devdoc": {
    "methods": {
      "__callback(bytes32,string)": {
        "details": "The following `__callback` functions are just placeholders ideally     meant to be defined in child contract when proofs are used.     The function bodies simply silence compiler warnings."
      }
    }
  },
  "userdoc": {
    "methods": {}
  }
}