{
  "contractName": "CoinFlip",
  "abi": [
    {
      "inputs": [],
      "stateMutability": "nonpayable",
      "type": "constructor"
    },
    {
      "anonymous": false,
      "inputs": [
        {
          "indexed": true,
          "internalType": "address",
          "name": "player",
          "type": "address"
        },
        {
          "indexed": false,
          "internalType": "bool",
          "name": "result",
          "type": "bool"
        },
        {
          "indexed": false,
          "internalType": "uint256",
          "name": "amount",
          "type": "uint256"
        }
      ],
      "name": "Flipped",
      "type": "event"
    },
    {
      "anonymous": false,
      "inputs": [
        {
          "indexed": true,
          "internalType": "address",
          "name": "player",
          "type": "address"
        }
      ],
      "name": "FulfilledRandom",
      "type": "event"
    },
    {
      "inputs": [
        {
          "internalType": "address",
          "name": "",
          "type": "address"
        }
      ],
      "name": "inProgress",
      "outputs": [
        {
          "internalType": "bool",
          "name": "",
          "type": "bool"
        }
      ],
      "stateMutability": "view",
      "type": "function",
      "constant": true
    },
    {
      "inputs": [
        {
          "internalType": "address",
          "name": "",
          "type": "address"
        }
      ],
      "name": "playerBet",
      "outputs": [
        {
          "internalType": "uint256",
          "name": "",
          "type": "uint256"
        }
      ],
      "stateMutability": "view",
      "type": "function",
      "constant": true
    },
    {
      "inputs": [
        {
          "internalType": "bytes32",
          "name": "requestId",
          "type": "bytes32"
        },
        {
          "internalType": "uint256",
          "name": "randomness",
          "type": "uint256"
        }
      ],
      "name": "rawFulfillRandomness",
      "outputs": [],
      "stateMutability": "nonpayable",
      "type": "function"
    },
    {
      "inputs": [
        {
          "internalType": "uint256",
          "name": "userProvidedSeed",
          "type": "uint256"
        }
      ],
      "name": "getRandomNumber",
      "outputs": [
        {
          "internalType": "bytes32",
          "name": "requestId",
          "type": "bytes32"
        }
      ],
      "stateMutability": "nonpayable",
      "type": "function"
    },
    {
      "inputs": [],
      "name": "setBet",
      "outputs": [],
      "stateMutability": "payable",
      "type": "function",
      "payable": true
    },
    {
      "inputs": [],
      "name": "flipCoin",
      "outputs": [],
      "stateMutability": "nonpayable",
      "type": "function"
    },
    {
      "inputs": [],
      "name": "withdraw",
      "outputs": [],
      "stateMutability": "nonpayable",
      "type": "function"
    }
  ],
  "bytecode": "0x60c060405234801561001057600080fd5b5073dd3782915140c8f3b190b5d67eac6dc5760c46e973a36085f69e2889c224210f603d836748e7dc00888173ffffffffffffffffffffffffffffffffffffffff1660a08173ffffffffffffffffffffffffffffffffffffffff1660601b815250508073ffffffffffffffffffffffffffffffffffffffff1660808173ffffffffffffffffffffffffffffffffffffffff1660601b8152505050507f6c3699283bda56ad74f6b855546325b68d482e983852a7a82979cc4807b641f460001b60078190555067016345785d8a000060088190555060805160601c60a05160601c6117b061011d600039600081816107390152610cee0152600081816107da0152610cb201526117b06000f3fe6080604052600436106100705760003560e01c806394985ddd1161004e57806394985ddd146100e0578063b37217a414610109578063b84aa06514610146578063c79bf37e1461015057610070565b80633ccfd60b146100755780634251ea3c1461008c578063799ae223146100c9575b600080fd5b34801561008157600080fd5b5061008a61018d565b005b34801561009857600080fd5b506100b360048036038101906100ae9190610ee4565b610526565b6040516100c09190611383565b60405180910390f35b3480156100d557600080fd5b506100de61053e565b005b3480156100ec57600080fd5b5061010760048036038101906101029190610f36565b610737565b005b34801561011557600080fd5b50610130600480360381019061012b9190610f72565b6107d3565b60405161013d919061125a565b60405180910390f35b61014e6108d8565b005b34801561015c57600080fd5b5061017760048036038101906101729190610ee4565b610a0c565b60405161018491906111ed565b60405180910390f35b33600360008273ffffffffffffffffffffffffffffffffffffffff1673ffffffffffffffffffffffffffffffffffffffff16815260200190815260200160002060009054906101000a900460ff161561021b576040517f08c379a000000000000000000000000000000000000000000000000000000000815260040161021290611303565b60405180910390fd5b600460003373ffffffffffffffffffffffffffffffffffffffff1673ffffffffffffffffffffffffffffffffffffffff16815260200190815260200160002060009054906101000a900460ff166102a7576040517f08c379a000000000000000000000000000000000000000000000000000000000815260040161029e90611343565b60405180910390fd5b6000600560003373ffffffffffffffffffffffffffffffffffffffff1673ffffffffffffffffffffffffffffffffffffffff16815260200190815260200160002054146103ef576000600560003373ffffffffffffffffffffffffffffffffffffffff1673ffffffffffffffffffffffffffffffffffffffff16815260200190815260200160002054905060003390508073ffffffffffffffffffffffffffffffffffffffff166108fc839081150290604051600060405180830381858888f1935050505015801561037d573d6000803e3d6000fd5b508160066000828254610390919061147b565b925050819055503373ffffffffffffffffffffffffffffffffffffffff167ff0783f7a0e8f961f377527c37370b36fb1f21999457b31fa003511f7b3cdd5356001846040516103e0929190611231565b60405180910390a25050610441565b3373ffffffffffffffffffffffffffffffffffffffff167ff0783f7a0e8f961f377527c37370b36fb1f21999457b31fa003511f7b3cdd535600080604051610438929190611208565b60405180910390a25b6000600460003373ffffffffffffffffffffffffffffffffffffffff1673ffffffffffffffffffffffffffffffffffffffff16815260200190815260200160002060006101000a81548160ff0219169083151502179055506000600160003373ffffffffffffffffffffffffffffffffffffffff1673ffffffffffffffffffffffffffffffffffffffff168152602001908152602001600020819055506000600560003373ffffffffffffffffffffffffffffffffffffffff1673ffffffffffffffffffffffffffffffffffffffff1681526020019081526020016000208190555050565b60016020528060005260406000206000915090505481565b33600360008273ffffffffffffffffffffffffffffffffffffffff1673ffffffffffffffffffffffffffffffffffffffff16815260200190815260200160002060009054906101000a900460ff16156105cc576040517f08c379a00000000000000000000000000000000000000000000000000000000081526004016105c390611303565b60405180910390fd5b600160003373ffffffffffffffffffffffffffffffffffffffff1673ffffffffffffffffffffffffffffffffffffffff168152602001908152602001600020546000811415610650576040517f08c379a000000000000000000000000000000000000000000000000000000000815260040161064790611363565b60405180910390fd5b6000610686334260405160200161066892919061113c565b6040516020818303038152906040528051906020012060001c6107d3565b9050336002600083815260200190815260200160002060006101000a81548173ffffffffffffffffffffffffffffffffffffffff021916908373ffffffffffffffffffffffffffffffffffffffff1602179055506001600360003373ffffffffffffffffffffffffffffffffffffffff1673ffffffffffffffffffffffffffffffffffffffff16815260200190815260200160002060006101000a81548160ff021916908315150217905550505050565b7f000000000000000000000000000000000000000000000000000000000000000073ffffffffffffffffffffffffffffffffffffffff163373ffffffffffffffffffffffffffffffffffffffff16146107c5576040517f08c379a00000000000000000000000000000000000000000000000000000000081526004016107bc90611323565b60405180910390fd5b6107cf8282610a2c565b5050565b60006008547f000000000000000000000000000000000000000000000000000000000000000073ffffffffffffffffffffffffffffffffffffffff166370a08231306040518263ffffffff1660e01b81526004016108319190611194565b60206040518083038186803b15801561084957600080fd5b505afa15801561085d573d6000803e3d6000fd5b505050506040513d601f19601f820116820180604052508101906108819190610f9b565b10156108c2576040517f08c379a00000000000000000000000000000000000000000000000000000000081526004016108b9906112e3565b60405180910390fd5b6108d160075460085484610cae565b9050919050565b33600360008273ffffffffffffffffffffffffffffffffffffffff1673ffffffffffffffffffffffffffffffffffffffff16815260200190815260200160002060009054906101000a900460ff1615610966576040517f08c379a000000000000000000000000000000000000000000000000000000000815260040161095d90611303565b60405180910390fd5b3460008114156109ab576040517f08c379a00000000000000000000000000000000000000000000000000000000081526004016109a290611363565b60405180910390fd5b34600160003373ffffffffffffffffffffffffffffffffffffffff1673ffffffffffffffffffffffffffffffffffffffff168152602001908152602001600020819055503460066000828254610a0191906113cb565b925050819055505050565b60036020528060005260406000206000915054906101000a900460ff1681565b60006002600084815260200190815260200160002060009054906101000a900473ffffffffffffffffffffffffffffffffffffffff1690506001600283610a73919061157e565b1415610b705760006002600160008473ffffffffffffffffffffffffffffffffffffffff1673ffffffffffffffffffffffffffffffffffffffff16815260200190815260200160002054610ac79190611421565b60065411610ad757600654610b24565b6002600160008473ffffffffffffffffffffffffffffffffffffffff1673ffffffffffffffffffffffffffffffffffffffff16815260200190815260200160002054610b239190611421565b5b905080600560008473ffffffffffffffffffffffffffffffffffffffff1673ffffffffffffffffffffffffffffffffffffffff1681526020019081526020016000208190555050610bb6565b6000600560008373ffffffffffffffffffffffffffffffffffffffff1673ffffffffffffffffffffffffffffffffffffffff168152602001908152602001600020819055505b6000600360008373ffffffffffffffffffffffffffffffffffffffff1673ffffffffffffffffffffffffffffffffffffffff16815260200190815260200160002060006101000a81548160ff0219169083151502179055506001600460008373ffffffffffffffffffffffffffffffffffffffff1673ffffffffffffffffffffffffffffffffffffffff16815260200190815260200160002060006101000a81548160ff0219169083151502179055508073ffffffffffffffffffffffffffffffffffffffff167f92962f84916de4404617677631a994df3b86f561765038aefa5f76643966dd3960405160405180910390a2505050565b60007f000000000000000000000000000000000000000000000000000000000000000073ffffffffffffffffffffffffffffffffffffffff16634000aea07f0000000000000000000000000000000000000000000000000000000000000000858786604051602001610d21929190611275565b6040516020818303038152906040526040518463ffffffff1660e01b8152600401610d4e939291906111af565b602060405180830381600087803b158015610d6857600080fd5b505af1158015610d7c573d6000803e3d6000fd5b505050506040513d601f19601f82011682018060405250810190610da09190610f0d565b506000610dc18584306000808a815260200190815260200160002054610e0c565b9050600160008087815260200190815260200160002054610de291906113cb565b60008087815260200190815260200160002081905550610e028582610e48565b9150509392505050565b600084848484604051602001610e25949392919061129e565b6040516020818303038152906040528051906020012060001c9050949350505050565b60008282604051602001610e5d929190611168565b60405160208183030381529060405280519060200120905092915050565b600081359050610e8a8161171e565b92915050565b600081519050610e9f81611735565b92915050565b600081359050610eb48161174c565b92915050565b600081359050610ec981611763565b92915050565b600081519050610ede81611763565b92915050565b600060208284031215610ef657600080fd5b6000610f0484828501610e7b565b91505092915050565b600060208284031215610f1f57600080fd5b6000610f2d84828501610e90565b91505092915050565b60008060408385031215610f4957600080fd5b6000610f5785828601610ea5565b9250506020610f6885828601610eba565b9150509250929050565b600060208284031215610f8457600080fd5b6000610f9284828501610eba565b91505092915050565b600060208284031215610fad57600080fd5b6000610fbb84828501610ecf565b91505092915050565b610fcd816114af565b82525050565b610fe4610fdf826114af565b611546565b82525050565b610ff3816114c1565b82525050565b611002816114cd565b82525050565b611019611014826114cd565b611558565b82525050565b600061102a8261139e565b61103481856113a9565b9350611044818560208601611513565b61104d8161160d565b840191505092915050565b61106181611501565b82525050565b6000611074602b836113ba565b915061107f8261162b565b604082019050919050565b60006110976020836113ba565b91506110a28261167a565b602082019050919050565b60006110ba601f836113ba565b91506110c5826116a3565b602082019050919050565b60006110dd6020836113ba565b91506110e8826116cc565b602082019050919050565b60006111006019836113ba565b915061110b826116f5565b602082019050919050565b61111f816114f7565b82525050565b611136611131826114f7565b611574565b82525050565b60006111488285610fd3565b6014820191506111588284611125565b6020820191508190509392505050565b60006111748285611008565b6020820191506111848284611125565b6020820191508190509392505050565b60006020820190506111a96000830184610fc4565b92915050565b60006060820190506111c46000830186610fc4565b6111d16020830185611116565b81810360408301526111e3818461101f565b9050949350505050565b60006020820190506112026000830184610fea565b92915050565b600060408201905061121d6000830185610fea565b61122a6020830184611058565b9392505050565b60006040820190506112466000830185610fea565b6112536020830184611116565b9392505050565b600060208201905061126f6000830184610ff9565b92915050565b600060408201905061128a6000830185610ff9565b6112976020830184611116565b9392505050565b60006080820190506112b36000830187610ff9565b6112c06020830186611116565b6112cd6040830185610fc4565b6112da6060830184611116565b95945050505050565b600060208201905081810360008301526112fc81611067565b9050919050565b6000602082019050818103600083015261131c8161108a565b9050919050565b6000602082019050818103600083015261133c816110ad565b9050919050565b6000602082019050818103600083015261135c816110d0565b9050919050565b6000602082019050818103600083015261137c816110f3565b9050919050565b60006020820190506113986000830184611116565b92915050565b600081519050919050565b600082825260208201905092915050565b600082825260208201905092915050565b60006113d6826114f7565b91506113e1836114f7565b9250827fffffffffffffffffffffffffffffffffffffffffffffffffffffffffffffffff03821115611416576114156115af565b5b828201905092915050565b600061142c826114f7565b9150611437836114f7565b9250817fffffffffffffffffffffffffffffffffffffffffffffffffffffffffffffffff04831182151516156114705761146f6115af565b5b828202905092915050565b6000611486826114f7565b9150611491836114f7565b9250828210156114a4576114a36115af565b5b828203905092915050565b60006114ba826114d7565b9050919050565b60008115159050919050565b6000819050919050565b600073ffffffffffffffffffffffffffffffffffffffff82169050919050565b6000819050919050565b600061150c826114f7565b9050919050565b60005b83811015611531578082015181840152602081019050611516565b83811115611540576000848401525b50505050565b600061155182611562565b9050919050565b6000819050919050565b600061156d8261161e565b9050919050565b6000819050919050565b6000611589826114f7565b9150611594836114f7565b9250826115a4576115a36115de565b5b828206905092915050565b7f4e487b7100000000000000000000000000000000000000000000000000000000600052601160045260246000fd5b7f4e487b7100000000000000000000000000000000000000000000000000000000600052601260045260246000fd5b6000601f19601f8301169050919050565b60008160601b9050919050565b7f4e6f7420656e6f756768204c494e4b202d2066696c6c20636f6e74726163742060008201527f7769746820666175636574000000000000000000000000000000000000000000602082015250565b7f596f7520616c7265616479206861766520616e206f6e676f696e67206265742e600082015250565b7f4f6e6c7920565246436f6f7264696e61746f722063616e2066756c66696c6c00600082015250565b7f5072697a65206e6f742079657420726561647920746f2077697468647261772e600082015250565b7f42657420616d6f756e742063616e6e6f206265207a65726f2e00000000000000600082015250565b611727816114af565b811461173257600080fd5b50565b61173e816114c1565b811461174957600080fd5b50565b611755816114cd565b811461176057600080fd5b50565b61176c816114f7565b811461177757600080fd5b5056fea2646970667358221220d6bd8273618364e63f40fa8d14d3a927399229bdc906c8251b57cb30eae38d2464736f6c63430008040033",
  "immutableReferences": {
    "412": [
      {
        "length": 32,
        "start": 2010
      },
      {
        "length": 32,
        "start": 3250
      }
    ],
    "414": [
      {
        "length": 32,
        "start": 1849
      },
      {
        "length": 32,
        "start": 3310
      }
    ]
  },
  "source": "// SPDX-License-Identifier: MIT\npragma solidity ^0.8.4;\n\nimport \"@chainlink/contracts/src/v0.8/dev/VRFConsumerBase.sol\";\n\n\ncontract CoinFlip is VRFConsumerBase {\n\n    event Flipped(address indexed player, bool result, uint256 amount);\n    event FulfilledRandom(address indexed player);\n\n    modifier notInProgress(address _player) {\n        require(!inProgress[_player], \"You already have an ongoing bet.\");\n        _;\n    }\n\n    modifier notZero(uint256 _bet) {\n        require(_bet != 0, \"Bet amount canno be zero.\");\n        _;\n    }\n    \n    mapping(address => uint256) public playerBet;\n    mapping(bytes32 => address) querySender;\n    mapping(address => bool) public inProgress;\n    mapping(address => bool) withdrawable;\n    mapping(address => uint256) private winAmount;\n    uint256 contractBal;\n\n    bytes32 internal keyHash;\n    uint256 internal fee;\n    \n    \n    constructor() \n        VRFConsumerBase(\n            0xdD3782915140c8f3b190B5D67eAc6dc5760C46E9,\n            0xa36085F69e2889c224210F603D836748e7dC0088\n        )\n    {\n        keyHash = 0x6c3699283bda56ad74f6b855546325b68d482e983852a7a82979cc4807b641f4;\n        fee = 0.1 * 10 ** 18;\n    }\n    \n    function getRandomNumber(uint256 userProvidedSeed)\n        public\n        returns (bytes32 requestId)\n    {\n        require(LINK.balanceOf(address(this)) >= fee, \"Not enough LINK - fill contract with faucet\");\n        return requestRandomness(keyHash, fee, userProvidedSeed);\n    }\n\n    function fulfillRandomness(bytes32 requestId, uint256 randomness)\n        internal\n        override\n    {\n        address player = querySender[requestId];\n        if(randomness % 2 == 1) {\n            uint256 maxWin = contractBal > playerBet[player] * 2 ? playerBet[player] * 2 : contractBal;\n            winAmount[player] = maxWin;\n        }\n        else {\n            winAmount[player] = 0;\n        }\n        inProgress[player] = false;\n        withdrawable[player] = true;\n        emit FulfilledRandom(player);\n    }\n\n    function setBet()\n        public\n        payable\n        notInProgress(msg.sender)\n        notZero(msg.value)\n    {\n        playerBet[msg.sender] = msg.value;\n        contractBal += msg.value;\n    }\n\n    function flipCoin()\n        public\n        notInProgress(msg.sender)\n        notZero(playerBet[msg.sender])\n    {\n        bytes32 id = getRandomNumber(uint256(keccak256(abi.encodePacked(msg.sender, block.timestamp))));\n        querySender[id] = msg.sender;\n        inProgress[msg.sender] = true;\n    }\n\n    function withdraw()\n        public\n        notInProgress(msg.sender)\n    {\n        require(withdrawable[msg.sender], \"Prize not yet ready to withdraw.\");\n        if(winAmount[msg.sender] != 0) {\n            uint256 win = winAmount[msg.sender];\n            address payable player = payable(msg.sender);\n            player.transfer(win);\n\n            contractBal -= win;\n            emit Flipped(msg.sender, true, win);\n        }\n        else {\n            emit Flipped(msg.sender, false, 0);\n        }\n\n        withdrawable[msg.sender] = false;\n        playerBet[msg.sender] = 0;\n        winAmount[msg.sender] = 0;\n    }\n}\n",
  "sourcePath": "/home/paddy/Code/academy/coin-flip/core/contracts/CoinFlip.sol",
  "compiler": {
    "name": "solc",
    "version": "0.8.4+commit.c7e474f2.Emscripten.clang"
  },
  "schemaVersion": "3.3.4",
  "updatedAt": "2021-05-13T15:50:58.079Z",
  "networkType": "ethereum",
  "devdoc": {
    "kind": "dev",
    "methods": {},
    "version": 1
  },
  "userdoc": {
    "kind": "user",
    "methods": {},
    "version": 1
  }
}